:100000000C942A000C9485040C9447000C9447002F
:100010000C9447000C9447000C9447000C94470044
:100020000C9447000C9447000C9447000C94470034
:100030000C9447000C9447000C9447000C94470024
:100040000C9447000C9447000C9447000C94470014
:100050000C94470011241FBECFE5D8E0DEBFCDBF12
:1000600016E0A0E6B0E0ECE6FFE002C005900D92DD
:10007000AC37B107D9F716E0ACE7B6E001C01D9286
:10008000A639B107E1F70E942C050C94B4070C9433
:10009000000081B38F7081BBC19AC29882E08A95BB
:1000A000F1F722E035E0C39A822F8A95F1F780B309
:1000B000807F922F9A95F1F7C398932F9A95F1F735
:1000C000C39A922F9A95F1F790B3922F9A95F1F7E0
:1000D000C398932F9A95F1F787FDE5CFC19881B327
:1000E000806F81BB0895282F662311F4C29801C048
:1000F000C29A82E08A95F1F7C39A82B3922F907FD9
:100100008F70982B92BB95E0892F8A95F1F7C39851
:10011000892F8A95F1F7C39A82B32295207F8F7039
:10012000822B82BB892F8A95F1F7C3989A95F1F7B4
:100130000E9449000895CF93DF93EC0110C08532EF
:1001400051F4219688818053883028F085E261E05F
:100150000E947300888161E00E947300219688816B
:10016000882369F7DF91CF910895EF92FF920F9363
:100170001F93DF93CF9300D000D00F92CDB7DEB79F
:100180009C018B01FE01319685E0DF011D928A956D
:10019000E9F7FE0135960DC0C9016AE070E00E94E2
:1001A0008D078083C9016AE070E00E948D079B0182
:1001B00031972115310581F7BFEF0F3F1B0779F408
:1001C00020E030E0AE014F5F5F4F02C02F5F3F4F36
:1001D000FA01E20FF31F80818823C1F304C025E0F8
:1001E00030E0201B310B7E010894E11CF11CE20E73
:1001F000F31E890109C0F70181917F01805D61E0F3
:100200000E9473000F5F1F4F05301105A4F30F907C
:100210000F900F900F900F90CF91DF911F910F9142
:10022000FF90EF900895843178F4623031F06330BC
:1002300031F0613029F4806403C08C5E01C08C5AB7
:10024000806860E00E94730008951F93CF93DF934E
:10025000182F8CE291E020E931E0F9013197F1F7B4
:100260000197D9F781B3806F81BBBB9ABA9AB99ACB
:1002700082B38F7082BBC398C198C29881E08A957F
:10028000F1F7C39A959A85E0982F9A95F1F7C3985C
:100290008A95F1F70E944900812F8C6060E00E94EE
:1002A000730088E260E00E94730080E460E00E94D6
:1002B0007300C3EAD0E0899161E00E94730080E09E
:1002C000CB3DD807C1F780E090E060E070E00E948D
:1002D0001301DF91CF911F9108952F923F924F927A
:1002E0005F926F927F928F929F92AF92BF92CF92C6
:1002F000DF92EF92FF920F931F93DF93CF9300D083
:100300000F92CDB7DEB77B018C0181E060E00E94E7
:10031000730080E060E00E94130180E690E00E949C
:100320009B0080E061E00E94130181E790E00E9461
:100330009B0080E062E00E9413018AE790E00E9447
:100340009B0080918E0690918F0666E070E00E947F
:10035000B50080E063E00E94130185E890E00E9410
:100360009B00609182067091830680918406909133
:1003700085060E944306DC01CB0166E070E00E9426
:10038000B500C801B7010E94760620E030E044EBDA
:1003900053E40E94DB051B012C012BEA3AEA4AEAEE
:1003A00050E40E942A073B014C010E9448066983E1
:1003B0008BED90E09B838A83EA81FB81808185BB02
:1003C000C401B30120E030E040E85FE30E94D705BC
:1003D00087FD50C0C401B30120E030E04FE753E493
:1003E0000E942607181614F0898145C0C201B10188
:1003F00020E030E04AE754E40E94DB055B016C0139
:1004000020E030E04AE755E40E942A077B018C0196
:1004100020E030E040E85FE30E94D70588231CF429
:1004200061E070E023C0C801B70120E03FEF4FE773
:1004300057E40E9426071816ACF4C601B50120E067
:1004400030E040E251E40E942A070E94480606C0BC
:1004500080E991E00197F1F76150704061157105F5
:10046000B9F70BC0C801B7010E944806CB0101973C
:10047000F1F703C081E08A95F1F78A819B810296AA
:100480009B838A838B5A934009F096CF0F900F90ED
:100490000F90CF91DF911F910F91FF90EF90DF9020
:1004A000CF90BF90AF909F908F907F906F905F9014
:1004B0004F903F902F9008952F923F924F925F92CE
:1004C0006F927F928F929F92AF92BF92CF92DF9264
:1004D000EF92FF920F931F93DF93CF9300D00F9271
:1004E000CDB7DEB77B018C0181E060E00E94730034
:1004F00080E060E00E94130180E690E00E949B0093
:1005000080E061E00E94130180E990E00E949B007E
:1005100080E062E00E9413018AE790E00E949B0065
:1005200080918E0690918F0666E070E00E94B50083
:1005300080E063E00E94130185E890E00E949B0048
:100540006091820670918306809184069091850661
:100550000E944306DC01CB0166E070E00E94B5001A
:10056000C801B7010E94760620E030E044EB53E476
:100570000E94DB051B012C012BEA3AEA4AEA50E40F
:100580000E942A073B014C010E94480669838BEABE
:1005900093E09B838A83EA81FB81808185BBC401D0
:1005A000B30120E030E040E85FE30E94D70587FD1B
:1005B00050C0C401B30120E030E04FE753E40E9493
:1005C0002607181614F0898145C0C201B10120E048
:1005D00030E04AE754E40E94DB055B016C0120E057
:1005E00030E04AE755E40E942A077B018C0120E0B5
:1005F00030E040E85FE30E94D70588231CF461E007
:1006000070E023C0C801B70120E03FEF4FE757E497
:100610000E9426071816ACF4C601B50120E030E0B0
:1006200040E251E40E942A070E94480606C080E981
:1006300091E00197F1F76150704061157105B9F7CC
:100640000BC0C801B7010E944806CB010197F1F722
:1006500003C081E08A95F1F78A819B8102969B8392
:100660008A838B57964009F096CF0F900F900F908A
:10067000CF91DF911F910F91FF90EF90DF90CF907E
:10068000BF90AF909F908F907F906F905F904F90B2
:100690003F902F9008952F923F924F925F926F92CA
:1006A0007F928F929F92AF92BF92CF92DF92EF9202
:1006B000FF920F931F937B018C0181E060E00E9409
:1006C000730080E060E00E94130180E690E00E94E9
:1006D0009B0080E061E00E94130188E990E00E94A5
:1006E0009B0080E062E00E9413018AE790E00E9494
:1006F0009B0080918E0690918F0666E070E00E94CC
:10070000B50080E063E00E94130185E890E00E945C
:100710009B0060918206709183068091840690917F
:1007200085060E944306DC01CB0166E070E00E9472
:10073000B500C801B7010E94760620E030E040E035
:100740005FE30E942A071B012C018FEF85BBC201CA
:10075000B1012BEA3AEA4AEA50E40E942A075B0117
:100760006C0120E030E040E85FE30E94D705882379
:1007700014F461E054C0C601B50120E030E04FE759
:1007800053E40E94260718160CF045C0C201B101BF
:1007900020E030E04AE754E40E94DB053B014C01D5
:1007A00020E030E04AE755E40E942A077B018C01F3
:1007B00020E030E040E85FE30E94D70588231CF486
:1007C00061E070E024C0C801B70120E03FEF4FE7CF
:1007D00057E40E9426071816B4F4C401B30120E0C0
:1007E00030E040E251E40E942A070E94480680E976
:1007F00091E005C0FC013197F1F76150704061153F
:100800007105C1F70EC0C801B7010E944806CB01AF
:100810000197F1F706C0C601B5010E9448066A9526
:10082000F1F715BAC601B50120E030E040E85FE31A
:100830000E94D705882314F461E054C0C601B501B5
:1008400020E030E04FE753E40E94260718160CF032
:1008500045C0C201B10120E030E04AE754E40E9403
:10086000DB055B016C0120E030E04AE755E40E94C3
:100870002A077B018C0120E030E040E85FE30E9422
:10088000D70588231CF461E070E024C0C801B701DB
:1008900020E03FEF4FE757E40E9426071816B4F414
:1008A000C601B50120E030E040E251E40E942A0791
:1008B0000E94480680E991E005C0FC013197F1F7FC
:1008C0006150704061157105C1F70EC0C801B701D4
:1008D0000E944806CB010197F1F706C0C601B50199
:1008E0000E9448066A95F1F71F910F91FF90EF90D3
:1008F000DF90CF90BF90AF909F908F907F906F9040
:100900005F904F903F902F9008951F920F920FB6D7
:100910000F9211248F939F93829909C080917C0636
:1009200090917D06019690937D0680937C06809140
:100930007C0690917D06039721F410927D0610921B
:100940007C069F918F910F900FBE0F901F9018956E
:100950008E9880E48BBF81E085BF789408959AB328
:1009600021E030E0082E02C0220F331F0A94E2F784
:10097000209529232ABB17B83E9A97B1982B97B98F
:1009800016B886B1866886B90895369A3699FECF2C
:1009900024B145B1942F80E030E0282B392BC901D8
:1009A000089587E00E94AF040E94C50490938D06CD
:1009B00080938C06A0E0B0E0BC01CD010E947406DB
:1009C00020E030EC4FE754E40E94DB0520E83DE4F2
:1009D00043E459E40E942A0720E030E040E252E478
:1009E0000E9473050E9443069B01AC0160938E0632
:1009F00070938F068093900690939106CA01089594
:100A000086E00E94AF040E94C50490938B068093F9
:100A10008A06A0E0B0E0BC01CD010E94740620E08F
:100A200030EC4FE754E40E94DB0520E030E040E486
:100A300051E40E942A0720E030E040E050E00E94AC
:100A400073059B01AC01209382063093830640938B
:100A500084065093850608958FEF84BB80E00E9442
:100A6000250181E060E00E9473008E9880E48BBFD6
:100A700081E085BF78940E94D104609386067093CC
:100A8000870680938806909389060E9400056093EC
:100A90007E0670937F068093800690938106209156
:100AA0007C0630917D062130310559F4609186062F
:100AB0007091870680918806909189060E945C0259
:100AC000DACF6091860670918706809188069091B2
:100AD00089062230310519F40E944B03CCCF0E94C5
:100AE0006D01C9CF5058BB27AA270ED075C166D15A
:100AF00030F06BD120F031F49F3F11F41EF45BC154
:100B00000EF4E095E7FB51C1E92F77D180F3BA17D6
:100B1000620773078407950718F071F49EF58FC17B
:100B20000EF4E0950B2EBA2FA02D0B01B901900108
:100B30000C01CA01A0011124FF27591B99F0593F4C
:100B400050F4503E68F11A16F040A22F232F342F94
:100B50004427585FF3CF469537952795A795F040E2
:100B60005395C9F77EF41F16BA0B620B730B840BF7
:100B7000BAF09150A1F0FF0FBB1F661F771F881FAF
:100B8000C2F70EC0BA0F621F731F841F48F4879507
:100B900077956795B795F7959E3F08F0B3CF9395F6
:100BA000880F08F09927EE0F979587950895D9D06B
:100BB00008F481E008950CD00FC107D140F0FED0B9
:100BC00030F021F45F3F19F0F0C0511139C1F3C08A
:100BD00014D198F39923C9F35523B1F3951B550B01
:100BE000BB27AA2762177307840738F09F5F5F4F00
:100BF000220F331F441FAA1FA9F333D00E2E3AF041
:100C0000E0E830D091505040E695001CCAF729D05A
:100C1000FE2F27D0660F771F881FBB1F26173707A9
:100C20004807AB07B0E809F0BB0B802DBF01FF27D9
:100C300093585F4F2AF09E3F510568F0B6C000C13F
:100C40005F3FECF3983EDCF3869577956795B79513
:100C5000F7959F5FC9F7880F911D9695879597F92E
:100C60000895E1E0660F771F881FBB1F62177307A7
:100C70008407BA0720F0621B730B840BBA0BEE1FBC
:100C800088F7E095089504D06894B111D9C008950B
:100C9000BCD088F09F5790F0B92F9927B751A0F09A
:100CA000D1F0660F771F881F991F1AF0BA95C9F700
:100CB00012C0B13081F0C3D0B1E00895C0C0672F39
:100CC000782F8827B85F39F0B93FCCF386957795B0
:100CD0006795B395D9F73EF4909580957095619599
:100CE0007F4F8F4F9F4F0895E89409C097FB3EF4C4
:100CF00090958095709561957F4F8F4F9F4F992369
:100D0000A9F0F92F96E9BB279395F69587957795E6
:100D10006795B795F111F8CFFAF4BB0F11F460FFA6
:100D20001BC06F5F7F4F8F4F9F4F16C0882311F0FE
:100D300096E911C0772321F09EE8872F762F05C012
:100D4000662371F096E8862F70E060E02AF09A95AD
:100D5000660F771F881FDAF7880F9695879597F9A2
:100D60000895990F0008550FAA0BE0E8FEEF16163C
:100D70001706E807F907C0F012161306E407F5078F
:100D800098F0621B730B840B950B39F40A2661F003
:100D9000232B242B252B21F408950A2609F4A140A6
:100DA000A6958FEF811D811D089597F99F6780E8B3
:100DB00070E060E008959FEF80EC089500240A94AD
:100DC0001616170618060906089500240A94121626
:100DD0001306140605060895092E0394000C11F459
:100DE000882352F0BB0F40F4BF2B11F460FF04C006
:100DF0006F5F7F4F8F4F9F4F089557FD9058440F5F
:100E0000551F59F05F3F71F04795880F97FB991F69
:100E100061F09F3F79F08795089512161306140626
:100E2000551FF2CF4695F1DF08C0161617061806B3
:100E3000991FF1CF86957105610508940895E8948E
:100E4000BB2766277727CB0197F908958ADF08F437
:100E50008FEF08950BD0C0CFB1DF28F0B6DF18F0C8
:100E6000952309F0A2CFA7CF1124EACFC6DFA0F3C4
:100E7000959FD1F3950F50E0551F629FF001729F2F
:100E8000BB27F00DB11D639FAA27F00DB11DAA1F4E
:100E9000649F6627B00DA11D661F829F2227B00D9B
:100EA000A11D621F739FB00DA11D621F839FA00D26
:100EB000611D221F749F3327A00D611D231F849F76
:100EC000600D211D822F762F6A2F11249F575040CD
:100ED0008AF0E1F088234AF0EE0FFF1FBB1F661F68
:100EE000771F881F91505040A9F79E3F510570F021
:100EF0005CCFA6CF5F3FECF3983EDCF38695779509
:100F00006795B795F795E7959F5FC1F7FE2B880F1B
:100F1000911D9695879597F9089597FB092E0726B9
:100F20000AD077FD04D00CD006D000201AF47095BA
:100F300061957F4F0895F6F7909581959F4F08959D
:100F4000AA1BBB1B51E107C0AA1FBB1FA617B707EF
:100F500010F0A61BB70B881F991F5A95A9F780950B
:0C0F60009095BC01CD010895F894FFCFDE
:100F6C005349474E414C2047454E455241544F52F0
:100F7C000073696E6577617665006672657175657B
:100F8C006E63792D00616D706C69747564652D00EC
:100F9C00747269576176650073717561726557611A
:100FAC007665000C12120C000000000004021F02F7
:100FBC000400000A15110A040000000305090B0BBC
:100FCC001818001F0E0E0404040404010105051575
:100FDC001515000E11111F1F1F1F007F00810083AC
:100FEC0000860088008A008C008F00910093009589
:100FFC000097009A009C009E00A000A200A400A6EE
:10100C0000A900AB00AD00AF00B100B300B500B754
:10101C0000B900BB00BD00BF00C100C300C400C6C6
:10102C0000C800CA00CC00CD00CF00D100D300D442
:10103C0000D600D800D900DB00DC00DE00DF00E1C8
:10104C0000E200E300E500E600E700E900EA00EB5F
:10105C0000EC00ED00EF00F000F100F200F300F303
:10106C0000F400F500F600F700F800F800F900FABB
:10107C0000FA00FB00FB00FC00FC00FD00FD00FD85
:10108C0000FE00FE00FE00FE00FE00FE00FE00FF63
:10109C0000FE00FE00FE00FE00FE00FE00FE00FD55
:1010AC0000FD00FD00FC00FC00FB00FB00FA00FA58
:1010BC0000F900F800F800F700F600F500F400F372
:1010CC0000F300F200F100F000EF00ED00EC00EB9B
:1010DC0000EA00E900E700E600E500E300E200E1D9
:1010EC0000DF00DE00DC00DB00D900D800D600D425
:1010FC0000D300D100CF00CD00CC00CA00C800C680
:10110C0000C400C300C100BF00BD00BB00B900B7E4
:10111C0000B500B300B100AF00AD00AB00A900A654
:10112C0000A400A200A0009E009C009A00970095CD
:10113C0000930091008F008C008A00880086008349
:10114C000081007F007D007B0078007600740072C7
:10115C00006F006D006B0069006700640062006046
:10116C00005E005C005A0058005500530051004FBF
:10117C00004D004B00490047004500430041003F33
:10118C00003D003B003A003800360034003200319C
:10119C00002F002D002B002A0028002600250023FC
:1011AC0000220020001F001D001C001B001900184D
:1011BC00001700150014001300120011000F000E90
:1011CC00000D000C000B000B000A000900080007C2
:1011DC0000060006000500040004000300030002E2
:1011EC0000020001000100010000000000000000EE
:1011FC0000000000000000000000000000000000E3
:10120C0000000000000000010001000100020002CB
:10121C00000300030004000400050006000600079C
:10122C0000080009000A000B000B000C000D000E5A
:10123C00000F001100120013001400150017001805
:10124C000019001B001C001D001F002000220023A1
:10125C00002500260028002A002B002D002F00312D
:10126C000032003400360038003A003B003D003FAD
:10127C0000410043004500470049004B004D004F22
:10128C000051005300550058005A005C005E00608D
:10129C000062006400670069006B006D006F0072F3
:1012AC00007400760078007B007D000000010002D5
:1012BC0000040005000700080009000B000C000EDC
:1012CC00000F001100120013001500160018001971
:1012DC00001A001C001D001F002000220023002407
:1012EC00002600270029002A002B002D002E00309C
:1012FC00003100330034003500370038003A003B31
:10130C00003C003E003F00410042004400450046C6
:10131C0000480049004B004C004D004F005000525B
:10132C0000530055005600570059005A005C005DF0
:10133C00005E006000610063006400660067006886
:10134C00006A006B006D006E006F0071007200741B
:10135C000075007700780079007B007C007E007FB0
:10136C000080008200830085008600880089008A46
:10137C00008C008D008F00900091009300940096DB
:10138C0000970099009A009B009D009E00A000A170
:10139C0000A200A400A500A700A800AA00AB00AC06
:1013AC0000AE00AF00B100B200B300B500B600B89B
:1013BC0000B900BB00BC00BD00BF00C000C200C330
:1013CC0000C400C600C700C900CA00CC00CD00CEC6
:1013DC0000D000D100D300D400D500D700D800DA5B
:1013EC0000DB00DD00DE00DF00E100E200E400E5F0
:1013FC0000E600E800E900EB00EC00EE00EF00F086
:10140C0000F200F300F500F600F700F900FA00FC1A
:10141C0000FD00FF00FD00FC00FA00F900F700F6EB
:10142C0000F500F300F200F000EF00EE00EC00EB32
:10143C0000E900E800E600E500E400E200E100DF7E
:10144C0000DE00DD00DB00DA00D800D700D500D4C8
:10145C0000D300D100D000CE00CD00CC00CA00C912
:10146C0000C700C600C400C300C200C000BF00BD5E
:10147C0000BC00BB00B900B800B600B500B300B2A8
:10148C0000B100AF00AE00AC00AB00AA00A800A7F2
:10149C0000A500A400A200A100A0009E009D009B3E
:1014AC00009A009900970096009400930091009088
:1014BC00008F008D008C008A0089008800860085D2
:1014CC00008300820080007F007E007C007B00791E
:1014DC00007800770075007400720071006F006E68
:1014EC00006D006B006A00680067006600640063B2
:1014FC0000610060005E005D005C005A00590057FE
:10150C0000560055005300520050004F004D004C47
:10151C00004B004900480046004500440042004191
:10152C00003F003E003C003B003A003800370035DD
:10153C000034003300310030002E002D002B002A27
:10154C000029002700260024002300220020001F71
:10155C00001D001C001A00190018001600150013BD
:10156C0000120011000F000E000C000B0009000807
:0C157C0000070005000400020001000050
:00000001FF
